:100000000C9450000C946D000C946D000C946D00D9
:100010000C946D000C946D000C94150E0C946D00F6
:100020000C946D000C946D000C946D000C946D009C
:100030000C946D000C943A0E0C946D000C946D00B1
:100040000C946D000C946D000C946D000C946D007C
:100050000C94A60D0C946D000C946D000C946D0026
:100060000C94CB0D0C94340D0C946D000C946D001D
:100070000C946D000C945C0D0C946D000C946D0050
:100080000C946D000C946D000C94F00D0C94810D8B
:100090000C946D000C946D000C946D000C946D002C
:1000A00011241FBECFEFCDBFDFE3DEBF18E2A0E01B
:1000B000B8E2E2E8FDE202C005900D92A430B1077B
:1000C000D9F729E2A4E0B8E201C01D92A731B20736
:1000D000E1F70E94600E0C9452150C940000CF932F
:1000E000DF9390E0FC01E75AF24920812F3F61F055
:1000F000FC01E05DF249E08130E2E39FF001112470
:10010000FC5F613021F42183DF91CF910895895FF5
:100110009249EC01A881AF3F69F0CF014096A80F4A
:10012000B92FB11D9FB7F89422838C9188608C936E
:100130009FBFEACFB0E0A0E0F5CF90E0FC01E25233
:10014000F349E081EE2319F1E13021F000F1E630CE
:10015000A8F00895895F9249FC012081233008F0BE
:100160002F5F3091010A81E090E001C0880F2A954D
:10017000EAF7809583238093010A089580E1E89F40
:10018000F0011124E05AF54F81818F7E818308951B
:100190000F931F93CF93DF93C82FD0E0FE01E75A50
:1001A000F24900810F3F91F0162F0E949D00FE0141
:1001B000E05DF249E08180E2E89FF0011124FC5FFC
:1001C0008081802351F0111106C00683DF91CF9109
:1001D0001F910F9108950583F9CFC95FD249888196
:1001E000309771F08F3F61F07096E80FF11D9FB767
:1001F000F8948081111107C0877F80839FBFE6CF6D
:10020000F0E0E0E0F4CF8860F8CF0F931F93CF9336
:10021000082F10E0F801E75AF249C081CF3F79F08A
:100220000E949D00F801E05DF249E08180E2E89FD4
:10023000F0011124FC5F8085C82381E009F480E08F
:10024000CF911F910F91089581E00895EF92FF9251
:100250000F931F93CF93DF9390E2899FE0011124C6
:10026000DC5FE984082F000F000F000FFF24F394D8
:1002700010E08E2D8F2179F0E02FE10FF0E0EE0FEE
:10028000FF1FE45EF74D80819181892B21F0019061
:10029000F081E02D09951F5FFF0C183051F7E986BA
:1002A000DF91CF911F910F91FF90EF9008952BEC6C
:1002B00037E0C9010197F1F780917A288150809346
:1002C0007A288111F6CF089581E08093E428809107
:1002D0001B28882329F080911B28815080931B289C
:1002E0000895FC018091E728882351F08091ED2842
:1002F00080838091EE2881838091EF288283089506
:100300008091E92880838091EA2881838091EB287D
:10031000F5CF982F8091F128811121C04091E628D6
:10032000342F3F702091E7289330F9F030F491306A
:1003300089F09230B1F081E017C0953001F1C8F03A
:100340009630C9F7313081F4222371F081E02A3AE6
:1003500059F405C0313041F481E0211105C080E03D
:10036000089581E03230D9F7089581E03330B9F74C
:10037000FBCF3130C9F781E02223B1F3F0CF4370D6
:10038000413091F7F8CF81E08093F2288093F128F3
:100390001092E4280895FC018081282F22952F7067
:1003A0009AE08F70299F800D112480838181282FEE
:1003B00022952F708F70299F800D11248183828157
:1003C000282F22952F708F70299F800D11248283F2
:1003D00008959091D02892959F70981304C09091A1
:1003E0001A28911109C08295807F8093D02810929D
:1003F000CF2881E080931A288091CF2882958F7032
:1004000011F010921A2808958091002890910128E7
:10041000892BA9F484E18093002980911728909179
:100420001828A09119288093F3289093F428A0937A
:10043000F52881E08093052910920429089588E227
:10044000EACF1092052981E00895809100289091CB
:100450000128892B39F484E18093002983EF98E205
:100460000C94710188E2F8CF9091CE2881E09D3004
:1004700021F0943111F080E00895089591958195CF
:100480009109809315289093162883E0809314286F
:1004900084E18093CE281092DD281092C02810921B
:1004A000BF281092BE280895ECEFF8E2808182E325
:1004B000808386E08093E32808958091CE2885305C
:1004C00031F48093E3288DE08093CE280895843121
:1004D00051F484E08093CE2882E08093DD2881E08F
:1004E00080930B2908958091DD28823019F081E0F6
:1004F0008093DD2808958091FC2881110BC084E051
:100500008093E3288093CE2883E080930B2982E0B8
:100510008093DD2808958091FC28811116C0809178
:100520000D28882331F08FE38093FC2810920D284A
:10053000089584E08093E3288093CE2883E080931D
:100540000B2982E08093DD2808958DE08093FC28BC
:1005500083E08093E32808958DE08093FC2883E076
:100560008093E328089581E08093E328089581E053
:10057000089581E0089582E38093FC2886E08093CB
:10058000E32883E080931428089581E0089581E0B2
:10059000089580910729811107C0809111298093C6
:1005A000FC2881E0809307298091FC28882331F082
:1005B00080911029881F8827881F089581E0089559
:1005C00083E0089583E0089581E0089584E08093B6
:1005D000CE2881E08093E3281092DD2883E00895FF
:1005E0001092102981E0089581E00895882379F020
:1005F000823079F49091E328943031F09D3021F0ED
:1006000091E090930B29089581E080930C2983E079
:10061000089580910B298930D1F328F481508230DC
:10062000B0F381E008958C30E1F7F1CF1F93CF93C1
:10063000DF939091E12892959F70981304C0909158
:100640000B28911115C0982F9295907F9093E128D7
:100650001092DF281092DE2811E010930B281092E0
:10066000E228D091E028893071F4DF70D093E0283F
:100670008091E02882958F7011F010920B28DF9105
:10068000CF911F910895CD2FC770C093E028863079
:1006900009F443C0C0F4823009F1833049F70E9465
:1006A0003402882319F080E0C13049F3D1E0D093BF
:1006B000E2280E943402811102C0C23031F5C061CB
:1006C000C093E028D5CF8A3021F08B30B9F1883043
:1006D00079F680910B29882359F229C00E943402AF
:1006E000882311F0C33041F480910B2981111FC080
:1006F00081E080930B291BC0C13009F0B9CF81E1A3
:100700008093E028C093E228B3CF80910B29811118
:1007100002C0D0930B29C062D3CF0E943402811152
:10072000A7CF80910B29811102C010930B29C062C1
:10073000C093E02881E08093E2289ACF0E9434029F
:10074000882391F2D570D13009F092CFCDCF90911E
:100750001029992381F08091D1288F70981309C0B6
:10076000909111298091D328891729F081E09F3F2A
:1007700019F080E0089581E00895CF9380911029C9
:1007800090911129C091DF28C11108C00E943E023A
:1007900081E08093DF288C2FCF910895C091DD28D0
:1007A000FACF8091E028807F90911129911101C0AA
:1007B00083608093E02883E00895E1EDF8E2AEE005
:1007C000B9E212968C911297868313968C911397A7
:1007D000878314968C91808786819781A0858093EA
:1007E000172890931828A093192881E008958091E4
:1007F000E028807F82608093E0288091D7289091C4
:10080000D828A091D9288093172890931828A093CE
:10081000192883E008958091DF28811108C00E9483
:10082000C30182E38093032981E08093DF2881E084
:100830000E948901882331F087ED98E20E947101BE
:1008400081E0089590910329911104C088E080937C
:100850000B2982E008958091E028807F8160809359
:10086000E02883E00895DC01FB019C91892F8295AB
:100870008F702AE09F70829F900D112490831196B3
:100880009C911197892F82958F709F70829F900DF8
:100890001124918312968C91982F92959F708F704E
:1008A000929F800D112482830895DC01FB018C91BD
:1008B0002AE0622F0E941E158295807F982B9083DC
:1008C00011968C9111970E941E158295807F982B0E
:1008D000918312968C910E941E158295807F982B91
:1008E000928308959091E6289093D1288091E728EB
:1008F0008093D2283091E8283093D3282091E9289A
:100900002093D4284091EA284093D5284091EB28A1
:100910004093D6284091EC284093D7284091ED2869
:100920004093D8284091EE284093D9284091EF2851
:100930004093DA289F70913089F58A3A41F06AE055
:100940000E941E158295807F982B9093D22864ED8B
:1009500078E2CB010E9455048091D328805A8230DE
:1009600058F48091D8286AE00E941E158295807FF5
:10097000982B9093D828089568ED78E2CB010E94D7
:1009800055048091D328823AB1F06AE00E941E1586
:100990008295807F982B9093D3280895953059F4B1
:1009A000811109C0303B39F42F3F29F064ED78E222
:1009B000CB010C9455040895CF93C091DE28C1114A
:1009C00064C08091DF28811124C08091E0288F705D
:1009D000813089F40E94A703882341F081ED98E2D9
:1009E00080931029C3E08C2FCF91089582E08093EB
:1009F0000B29C2E0F8CF0E94C3018FEF8093032937
:100A000081E080930A288093092810920828809317
:100A1000DF288091DF28882331F380910329811119
:100A200015C080910828811102C088E0E0CF1092A3
:100A300008288FEF8093032980910A289091092834
:100A40009923D1F1882391F110920A2880E00E9425
:100A50008901882341F2C1E0C09308288091E028F1
:100A60008F70833069F586E00E948901882341F107
:100A700084EB9DEF0E943E02C093DE281092DF2897
:100A8000C091DE28CC2309F4AECF8091DF288111FC
:100A90000BC0C091DD28C13009F0A5CF0E94C30171
:100AA0001092DE28C093DF28C0E09DCF1092092865
:100AB00081E080930A28CACF8111C6CF89E097CF01
:100AC0000E9472040E94A703811188CF0E94C30173
:100AD000D7CF8091DF28811108C00E94C30182E333
:100AE0008093032981E08093DF2881E00E948901BF
:100AF000882321F00E94720481E0089590910329D7
:100B0000911104C088E080930B2982E00895CF936F
:100B1000DF93EB01DC0112963C9112972A81632F3F
:100B2000621B770BFB0111962C9111973981231BC6
:100B3000330B8C919881891B990B77FF04C0E55B7F
:100B4000FF4F2150310937FF03C0245C3F4F01970D
:100B5000DA018C9311962C9311971296EC93DF91F6
:100B6000CF910895EF92FF921F93CF93DF9300D020
:100B70001F92CDB7DEB77C01109105288091062821
:100B800081110CC011110AC00E94C30182E380933D
:100B900003291092072881E0809306288091062877
:100BA000882319F1111121C081E00E948901882355
:100BB00009F43DC08AED98E20E947101AE014F5FD9
:100BC0005F4F6AED78E2C7010E9487058B818093B1
:100BD0001B2880911B28882329F080911B28815095
:100BE00080931B2881E080930528909106288091AE
:100BF000052891114EC0882399F18091DD2881301C
:100C000009F042C09091BE28911101C080E09091FE
:100C1000C028911182609091BF289111846080FF5B
:100C200028C08CE080930B291092052818C084E01E
:100C30000E948901882351F084E690E00E943E02E0
:100C400081E08093052810920628CFCF8091032958
:100C50008111CBCF88E080930B291092062882E087
:100C60002396CDBFDEBFDF91CF911F91FF90EF9014
:100C70000895809107288F5F80930728853188F633
:100C80001092052880E0ECCF8230E1F71092052821
:100C9000E7CF882329F380911B288111F3CF10928D
:100CA000062881E080930528DBCFCF938091DF2851
:100CB000C091DD28811115C01092D72882E0809361
:100CC000D8281092D92887ED98E20E94B205C82F43
:100CD000813039F484EB9DEF0E943E02C093DF28FF
:100CE000C0E08C2FCF91089587ED98E20C94B20567
:100CF0008F929F92AF92BF92CF92DF92EF92FF922C
:100D00001F93CF93DF93DC01FB01EA0112962C9134
:100D10001297628170E090E080E0620F711D811D8A
:100D2000911D11962C9111978180912CB12CA12CA1
:100D3000820E911CA11CB11C2C91C080D12CF12CD5
:100D4000E12CC20ED11CE11CF11C2BE430E040E090
:100D500050E00E942A15162FCA01B901680D791DAD
:100D60008A1D9B1D2CE330E040E050E00E942A15D4
:100D7000C20ED31EE41EF51EC88269831A83DF915A
:100D8000CF911F91FF90EF90DF90CF90BF90AF90E9
:100D90009F908F900895DC01FB019C9180819817B2
:100DA00098F0891798F011969C9111978181981766
:100DB00058F0891758F012969C918281981720F06C
:100DC000891720F081E0089580E0089582E0089579
:100DD0008091E528803120F0813220F482E008956E
:100DE00081E0089583E008958FE00E94050190E07E
:100DF000089580911428815080931428811113C084
:100E00000E94F406882369F088E080930B2982E031
:100E10008093DD2882E18093E32884E08093CE28CC
:100E2000089586E0F2CF85E08093FC2881E18093ED
:100E3000E32808950E94F406882351F08091FC284D
:100E4000811109C08CE08093E3281092FC2808955A
:100E50008FE08093E32808950E94F406882389F0A8
:100E60008091FC2881110CC081E080930C2886EFD2
:100E70009FEF809315289093162884E18093E328B0
:100E800008958FE0FBCF1092FC280E94F40688237F
:100E900059F080910C28811103C086E28093FC28D0
:100EA0008CE08093E32808958FE0FBCF8091FC28AD
:100EB000811107C00E94F406811104C08FE0809365
:100EC000E328089588E0FBCF8091FC2881110CC0B5
:100ED00084E080930B2992E09093DD2892E1909337
:100EE000E3288093CE2808950E94F406882331F0E9
:100EF00083E08093FC2887E08093E3280895682F9F
:100F000085E10C94C800682F8EE00C94C8000F9304
:100F10001F93CF93DF93C82F90E080E00E947F075C
:100F200090E080E00E94830781E090E00E948307C8
:100F300090E080E00E94830781E090E00E948307B8
:100F400090E080E00E94830781E090E00E948307A8
:100F5000C295CC0FC11DCC0FC11D06E010E090E082
:100F600080E00E9483078C2F817090E00E947F07B1
:100F700081E090E00E948307C6950150110979F73E
:100F8000C4E0D0E01AE090E080E00E948307812F67
:100F9000817090E00E947F0781E090E00E948307CB
:100FA0001695219781F760E084E10E94C80061E016
:100FB00084E10E94C80081E090E0DF91CF911F9111
:100FC0000F910C947F071F93CF93DF93182F90E01E
:100FD00080E00E947F0790E080E00E94830781E02C
:100FE00090E00E94830790E080E00E94830781E008
:100FF00090E00E94830790E080E00E94830781E0F8
:1010000090E00E948307C8E0D0E090E080E00E947A
:101010008307812F817090E00E947F0781E090E03C
:101020000E9483071695219781F760E084E10E9472
:10103000C80061E084E10E94C80081E090E0DF9197
:10104000CF911F910C947F07CF938233E1F1A0F4ED
:101050008F3158F48C31C8F58B3180F5893160F5CA
:10106000883141F1CF910C94E3078033D1F1D8F569
:101070008F31C1F786EEF6CF833489F158F484338B
:1010800009F43FC090F1853309F446C0813451F72B
:1010900081ECE8CF863419F118F48434C9F3E2CF37
:1010A000833BA9F08B3BF1F61092002810920128A7
:1010B0008DE9D8CF80EED6CF8AEED4CF88EE0E94CD
:1010C000E3071092E528CF9108958EEECBCF81E013
:1010D00090E0809300289093012889E9C3CF86ECA3
:1010E000C1CF89E8BFCF80EDBDCF80910428806259
:1010F000809304280E94870760E08BE0CF910C94D6
:10110000C8008091042885FFDECF8F7C809304285F
:101110000E94870761E0F1CFC0910428CF7CC061B5
:10112000C093042861E08BE00E94C8008C2FCF910F
:101130000C94870783E30E94240881E0089580913E
:10114000DE28811121C08091DF2881110CC080919F
:10115000E0288F70823011F081E008950E949A0893
:1011600081E08093DF288091DF28811101C00895FC
:10117000109205290E94C30182E38093032981E034
:101180008093DE281092DF288091DF2881111DC016
:1011900085E00E9489018111DFCF81E00E948901F1
:1011A000882351F087ED98E20E9471018091E02838
:1011B00088608093E028D0CF909103299111D7CFF8
:1011C00088E080930B2982E0089580E008950E94D2
:1011D0009A08109205291092F228109207288091FF
:1011E000E028807F8093E02883E008950E94F40641
:1011F0008823F9F080911328811104C0809112286E
:10120000882359F08091FF28811107C088E10E944E
:10121000240810921328109212288FE10E942408AB
:101220000E94C30186E18093E32889E18093FC2832
:10123000089581E08093BF288FE08093E328109287
:1012400013281092122808950F931F93CF93DF93C2
:101250001092132810921228809115289091162828
:101260008C0197FF04C000271127081B190B00935E
:1012700010281093112806391105D4F1093B2BE0F1
:10128000120724F488E10E94240832C0C09100288B
:10129000D0910128181619060CF040C00E94E806EB
:1012A000813031F0823079F5013A8FE01807A0F1F2
:1012B00086E033E0169507953A95E1F79801220FFD
:1012C000331F020F131F000F012F001F110B90E09F
:1012D000CD2B21F4880F991F880F991F800F911F24
:1012E0008093FF288BE10E94240881E080931328DB
:1012F00085E18093E32883E08093FC28DF91CF9100
:101300001F910F910895209729F489E0013127E278
:10131000120778F680E0CDCF81E0CBCF81E08093DB
:101320001228209779F00E94E806C6E0D0E08130CC
:1013300029F021E0823009F020E0C22FC093FF287D
:101340008AE1A1CF0E94E806813029F08230B1F70E
:10135000C3E0D0E0F3CFC0E1D0E0F0CFCF9383E1A2
:101360008093E32880910E288823D1F1C0917B28B7
:1013700080910F28882399F00E94F406882379F041
:10138000CC2369F089E00E940501882341F08AE1BD
:101390000E9424088DE78093FC28CF91089588E16E
:1013A0000E9424088FE38093FC2881E080930D281D
:1013B00010920C282091002830910128232B09F04D
:1013C00080E080930F28C11105C01092FC28109274
:1013D0000E28E3CF89E00E9405018111DECFF5CF11
:1013E0001092FC2810920D28D8CF88E10E94240882
:1013F00080911428815080931428811113C082E0B9
:101400008093DD2882E18093E32884E08093CE28D6
:101410008091BE28811104C084E080930B29089537
:101420008DE0FBCF8DE08093FC2880E18093E32862
:1014300008958091FC288A3058F48FE10E94240896
:101440000E94C30186E18093E32889E18093FC2810
:1014500008950E94F406882359F08091FC28811198
:1014600006C08CE10E9424088AE08093E328089556
:101470008FE0FBCF8BE10E94240889E18093FC2858
:1014800089E08093E32881E080930E28089580917D
:1014900000289091012820917B28211107C0892BD9
:1014A00019F081E40C94240883E4FCCF892B11F01B
:1014B00084E4F8CF86E4F6CF0E94F406882309F48A
:1014C0004AC08091F028811108C08091FC288111C8
:1014D0000CC08EE08093E32808951092F02889E1F3
:1014E0008093FC2883E0809314288091CE28843157
:1014F00031F48093E3288DE08093CE280895809185
:10150000CD282091002830910128232B61F48111EE
:101510001BC088E18093E3288AE10E9424088DE0C3
:101520008093FC280895882379F087E18093E3284D
:101530008BEB0E9424088CE10E9424081092002862
:10154000109201280C94470A8DE08093CE2881E008
:101550008093DD2808958FE0BDCF88E10E942408A4
:1015600010920E2810920F2810920C2881E00895F6
:1015700080910629811125C09091072991110AC0F7
:1015800090910C2891110CC096E29093FC2891E068
:101590009093072990910729911105C080E0089543
:1015A0001092FC28F4CF9091FC289111F8CF81E0A3
:1015B00080930C289EE39093FC2880930629109238
:1015C0000729809107298111E9CF8091FC28811199
:1015D00005C086E080930B2982E008958FE10E9488
:1015E000240881E00895809110290E94240881E058
:1015F000089583E30E94240881E00895CF938091A9
:10160000DE28811113C08091DF2881110FC08091E5
:10161000E028982F9770C1E0923089F583FF28C0A9
:10162000877F8093E02881E08093DF288091DE2807
:10163000811112C08091DF28882371F087ED98E234
:101640000E94B205C82F8130D1F484E30E9424089F
:10165000C093DE281092DF28C091DE28CC2379F0D9
:101660008091DF28C0E081110AC0CF910C94040260
:1016700084E30E94240881E08093DE28D7CF8C2F5A
:10168000CF910895CF93C82F61E082E10E946F004F
:101690006C2F82E1CF910C94C8001F93CF93DF93FE
:1016A000182FC8E0D0E061E082E00E946F00612F57
:1016B000617082E00E94C80090E080E00E94420BCE
:1016C00081E090E00E94420B1695219761F761E05E
:1016D00083E10E94C80061E082E00E946F0061E047
:1016E00082E0DF91CF911F910C94C80062E082E00C
:1016F0000E946F0082E00E94050190E00895EF9241
:10170000FF920F931F93CF9390E080E00E94420BD3
:1017100098E0E92EF12CC0E081E090E00E94420BBD
:101720000C2F10E015950795C02F0E94760B892B82
:1017300009F0C06890E080E00E94420B81E0E81A66
:10174000F10851F760E083E10E94C8008C2FCF912F
:101750001F910F91FF90EF9008958091E4288111DF
:1017600007C08DE08093E32889E18093FC280895E9
:101770008091FC28811106C08EE08093E32881E0EF
:101780008093C0280895CF93DF93C091CE28C530B1
:1017900069F4C093E3288DE08093CE2888E10E940D
:1017A000240810920F28DF91CF91089580910E2880
:1017B0008823A1F180910C288823E9F080E10E9420
:1017C0000501813021F48091FC288111ECCF88E162
:1017D0000E9424089091FC288DE7891B87FD09C091
:1017E000880F8093FC2881E080930D2810920E28AA
:1017F000DACF8FEFF6CF8091FC288111D4CF8FE321
:101800008093FC2880910D28882319F010920D28D0
:10181000CACF80910F28882349F3C3CF8091FC2839
:101820008111C1CF80910D28882321F08DE0809314
:10183000FC28ECCFD1E0D093E32883EB0E9424086E
:1018400081E090E080930028909301280E94470A4D
:1018500010920C2810920F28C23109F0A4CFD09317
:10186000DD28A1CF8091002890910128892B71F467
:1018700083EB0E9424088CE10E94240881E090E020
:1018800080930028909301280C94470A80E10E94DD
:101890000501882359F08FE10E9424080E94C301AA
:1018A00086E18093E32889E18093FC2808950E94D3
:1018B000F406882371F080E10E940501882341F03D
:1018C0000E94470A81E080930F288BE08093E328F1
:1018D00008958FE0FBCFCF93C0910729C1112AC093
:1018E00080E10E940501811107C085E080930B29EA
:1018F000C2E08C2FCF9108958091102980931528F4
:10190000809111298093162880911528909116288E
:1019100091958195910980931528909316280E949E
:10192000240981E0809307299AEF9093FC28809303
:101930000D28DFCF8FE10E942408C1E0DACFCF93DA
:10194000C0910F28C1114DC080910629811126C078
:1019500080910729811106C082E38093FC2881E0F1
:101960008093072980910729882341F08091FC28E2
:10197000811107C084E080930B29C2E08C2FCF91A6
:10198000089589E18093FC288BE10E94240881E07E
:1019900080930E28809306291092072980910729A9
:1019A00081110DC08091FC28811109C084E68093CB
:1019B000FC288CE10E94240881E080930729809113
:1019C00007298823D9F28091FC28811102C085E083
:1019D000D2CF80E10E940501882381F281E08093CB
:1019E0000F28C1E0CBCF8091A528811116C08FE0D0
:1019F000E9EAF8E2A4E9B8E201900D928A95E1F7EC
:101A00008FE0809384288093A42881E08093A62887
:101A10008093A5288093BC28089580E008958130A4
:101A200029F000F1843020F080E008950C94F30C4C
:101A30008091A5288111F8CF8FE0E9EAF8E2A4E9C6
:101A4000B8E201900D928A95E1F78FE080938428A7
:101A50008093A42881E08093A6288093A528809372
:101A6000BC28089581E008951F920F920FB60F923F
:101A700011248F939F93AF93BF93809113299091DB
:101A80001429A0911529B09116290196A11DB11D07
:101A90008093132990931429A0931529B0931629A4
:101AA00081E08093A60ABF91AF919F918F910F9093
:101AB0000FBE0F901F9018951F920F920FB60F92A6
:101AC00011242F933F934F935F936F937F938F9343
:101AD0009F93AF93BF93EF93FF9385E00E942601FE
:101AE000FF91EF91BF91AF919F918F917F916F91F6
:101AF0005F914F913F912F910F900FBE0F901F90CC
:101B000018951F920F920FB60F9211242F933F93A7
:101B10004F935F936F937F938F939F93AF93BF93F5
:101B2000EF93FF9384E00E942601FF91EF91BF9114
:101B3000AF919F918F917F916F915F914F913F9165
:101B40002F910F900FBE0F901F9018951F920F921C
:101B50000FB60F9211242F933F934F935F936F9380
:101B60007F938F939F93AF93BF93EF93FF9383E004
:101B70000E942601FF91EF91BF91AF919F918F91AC
:101B80007F916F915F914F913F912F910F900FBE79
:101B90000F901F9018951F920F920FB60F9211245D
:101BA0002F933F934F935F936F937F938F939F9365
:101BB000AF93BF93EF93FF9382E00E942601FF91C2
:101BC000EF91BF91AF919F918F917F916F915F91B5
:101BD0004F913F912F910F900FBE0F901F9018952E
:101BE0001F920F920FB60F9211242F933F934F9392
:101BF0005F936F937F938F939F93AF93BF93EF9375
:101C0000FF9381E00E942601FF91EF91BF91AF9178
:101C10009F918F917F916F915F914F913F912F9104
:101C20000F900FBE0F901F9018951F920F920FB636
:101C30000F9211242F933F934F935F936F937F9352
:101C40008F939F93AF93BF93EF93FF9380E00E9496
:101C50002601FF91EF91BF91AF919F918F917F915D
:101C60006F915F914F913F912F910F900FBE0F9009
:101C70001F9018951F920F920FB60F9211242F9359
:101C80008F939F93EF93FF9381E08093960A90E068
:101C900080E0FC01E450F74D2081222319F02081DF
:101CA0002150208301968830910599F7FF91EF919B
:101CB0009F918F912F910F900FBE0F901F901895AD
:101CC000CF93DF93CDB7DEB72C97CDBFDEBF88EDC6
:101CD00090E084BF909361008091020686608093BB
:101CE00002068091000681608093000680910206C2
:101CF0008F7C8065809302061092E20582E08093DB
:101D0000E40581E08093030A8EEF8093270A809395
:101D1000260A80E880932D0A80932B0A8093290A53
:101D200080932C0A80932A0A8093280A8BE0809360
:101D3000000A87E08093E505E0E8FAE037E02EEF5F
:101D400090E885E031832487958780837096E03C16
:101D50004AE0F407B9F71092A10A8FE79EE3809357
:101D6000AC0A9093AD0A8091A50A81608093A50A80
:101D70001092A00A8091A00A81608093A00A7894B2
:101D80008FEF99EF80939C0A90939D0A1092910A8D
:101D900011E01093950A03E00093900A84E691E025
:101DA000809342289093432880915304887F8093A6
:101DB00053048091530483608093530461E08EE068
:101DC0000E946F0061E085E10E946F0061E084E1A4
:101DD0000E946F0061E08CE00E946F0062E08DE085
:101DE0000E946F0062E089E00E946F0062E081E182
:101DF0000E946F0062E080E10E946F0061E08BE072
:101E00000E946F0061E08BE00E94C80062E08FE0FA
:101E10000E946F0061E088E00E946F0060E088E04F
:101E20000E94C80061E08AE00E946F0060E08AE0E2
:101E30000E94C80061E08CE00E94C80081E090E050
:101E40000E947F0781E090E00E94830761E084E1C7
:101E50000E94C80080EA80937A280E94570188E295
:101E600080937A280E94570110937A280E94570184
:101E700084E180937A280E94570161E08CE00E94FF
:101E8000C80081E090E00E947F0781E090E00E941E
:101E9000830761E084E10E94C8001092E42884E096
:101EA0008093CE281092E3281092DD2881E090E004
:101EB000809300289093012810937B281092CD28BE
:101EC00083EB0E94240880E30E94240881E30E949F
:101ED000240884E40E942408E0E1F9E2DF011D9275
:101EE0000A95E9F78FEF80930F2910930E298093BD
:101EF000032810920D2910920B2910920C29109290
:101F0000CC28E0E8F8E289E2DF011D928A95E9F742
:101F100061E083E10E946F0061E083E10E94C800FC
:101F200062E082E10E946F0062E082E00E946F0046
:101F300010927F281093022861E08AE00E94C80076
:101F4000F3E08F2E912C44244394512C64E0662EB0
:101F5000712C70EFC72E78E2D72EE0E0AE2EE0E0D5
:101F6000BE2E80917F288823D1F090910F299F3F2A
:101F7000B1F490910E29913091F480930F298091C2
:101F80007E288093102980917D288093112980914B
:101F90007C288093122910927F2810920228809129
:101FA000022881110AC080910E298150823028F4C4
:101FB00081E0809302288093B828E0918028F091F6
:101FC0008128E730F10508F0D1C0E751F04F0C94BB
:101FD0004C15F00F53107C109C10C710F610051113
:101FE0008091A528882309F450C01092852810926A
:101FF0008328609280287092812880918028909117
:1020000081280497029758F08091BC28882309F40E
:1020100009C11092B8281092BB281092BC28809158
:10202000BB28811108C08091B828882321F08093B3
:10203000BB280E940F0D8091BA28882359F0809107
:102040000228882339F01092A72881E08093A828DD
:102050001092BA288091B928811107C08091A728D1
:102060008111809186288093B9288091B928813088
:1020700009F4E0C008F4F8C0823009F4AAC2833041
:1020800009F4B9C21092B928EFC00E94760B892BCF
:1020900009F0B3CF40928028509281281092842872
:1020A00010928328AACF0E947F0B81110AC0E6E01C
:1020B000F0E0E0938028F093812880E880938428E2
:1020C0009CCF809388288093832891E090938428E4
:1020D0008F70E82FF0E0E855F549808180938228E1
:1020E000813039F483E090E08093802890938128B8
:1020F00084CF82E090E0F8CF0E94760B892B09F024
:102100007CCF0E947F0BE091842821E02E0F20934A
:102110008428F0E0E058F74D808790918328890F5C
:102120008093832880918228281708F466CF8092B4
:1021300080289092812861CF0E94760B892B09F02C
:102140005CCF0E947F0B809590918328891319C0E2
:10215000809188289091872889130DC082E0809310
:10216000862881E08093A7281092832810928028E7
:102170001092812842CF91E09093862880938728FF
:10218000F0CF83E08093862810928728EACF0E94C0
:10219000760B892B09F431CFE0918528F0E0E058E7
:1021A000F74D84890E944D0B80918528E82FF0E03F
:1021B000E058F74D909183282489920F90938328BB
:1021C0008F5F809385288091842881508093842814
:1021D000811113CF1092A5288091A628882319F089
:1021E00085E090E081CF90E080E07ECF0E94760B8A
:1021F000892B09F402CF8091832880950E944D0B92
:102200001092A5281092A628AFCF80918428882309
:1022100011F0815053CF83E08093862881E0809332
:10222000A728A4CF8091BB28882309F4F8CE0E9468
:102230000F0DF5CE909102289923B1F09091882846
:1022400090937F289091892890937E2890918A2856
:1022500090937D2890918B2890937C28109202284F
:102260001092B9288093BA2880910F298F3FC9F026
:102270008F5F809303289FEF90930F2910920E2970
:1022800010920D29803108F4CCC18E3108F4BFC101
:1022900082E080930E2981E0809310298FEF809354
:1022A0000328809103288F3F61F1803108F4BEC17B
:1022B00080519091092992959F70891304C0909143
:1022C000BD2891110FC08295807F809309291092BB
:1022D00007291092062981E080930A291092082983
:1022E0008093BD2880910829882359F01092BD2839
:1022F000823009F4D8C1833009F4B2C1813009F4C5
:10230000C8C180910C2981114EC39091D02892951B
:102310009F708091CF28282F2F709111CDC181E11E
:1023200009F413C28091E22881112CC0E091E128C8
:102330008E2F82958F708C3028F5EF70E53010F578
:1023400025E0829FC0011124E80FF92FF11DEE0F47
:10235000FF1FE855F4490190F081E02D309791F08E
:102360000995823009F498C2833009F48BC2813018
:1023700049F48091E1288F5F8093E1281092DF2853
:102380001092DE288091E2288823C1F18091E02814
:10239000982F92959F70913089F58F70813009F058
:1023A000AAC28091DD28813049F50E9489018823E5
:1023B00009F496C28091ED288A878091EE288B8758
:1023C0008091EF288C878091D228BE01695F7F4F72
:1023D000811167C284ED98E20E943304BE01695FF7
:1023E0007F4FCE010A960E94CB06823009F05CC274
:1023F00090E080E00E943E020E94C301E091E32849
:10240000F0E0EE0FFF1FE05EF3490190F081E02D58
:1024100009958091F228882309F466C08091E42808
:10242000882309F461C01092E4288DE00E94050120
:10243000882309F459C006EE18E2312C98E0E92E01
:10244000F12C60E08CE00E94C80061E08CE00E940A
:10245000C8008DE00E940501369440E8849FC001C9
:102460001124382A81E0E81AF10859F7D8013D9281
:102470008D01CA16DB0609F71092F12881E08093DE
:10248000F0288091E6288F70813009F05CC280913D
:10249000E7288A3A51F0982F92959F708F70BAE092
:1024A0009B9F800D11248093E72889EE98E20E947B
:1024B000CB018091E828805A823008F02DC28091AB
:1024C000ED28982F92959F708F70EAE09E9F800D67
:1024D00011248093ED288091E728882309F430C2E5
:1024E0008091ED288093E52880910529882309F4BF
:1024F00069C086E0A6EFB8E21D928A95E9F780915F
:10250000042981113FC08091002981115BC081E0C5
:102510000E948901882309F42FC286EF98E20E9465
:1025200071011092F9281092FA288FE08093FB280D
:1025300049EF58E2BA0183EF98E20E94780669EF0A
:1025400078E286EF98E20E94CB068230B1F41092D6
:10255000F92881E08093FA281092FB2849EF58E28D
:10256000BA0183EF98E20E94780666EF78E289EF7D
:1025700098E20E94CB068111FCC181E0809304297E
:102580000E949A08809104298823E1F01092F9288A
:102590001092FA2888E28093FB2849EF58E2BA01AA
:1025A00083EF98E20E94780689EF98E20E94B205D4
:1025B000813009F0E8C1109204290E94250284E3C9
:1025C0000E942408A114B10409F4CBCC0E9400009D
:1025D000BACC8091B828811147CE80918828809309
:1025E000A92811E01093B8281093BB280E94F30C7F
:1025F0001093BA2847CD8091B828811135CE8091AB
:1026000088288093A92881E18093AA28EACF809125
:102610000C29811146CE81E080930B29109203286A
:1026200040CE80910C29811133CE3BCE20910D29D3
:102630002530B0F430E0D901AA0FBB1FA20FB31FA1
:10264000FFE08F9FA00DB11D1124A854B549ED9155
:10265000FC911197309721F012968C91099548CEF4
:1026600080910328803159F410920C2981E08093E5
:102670000E2910920B298FEF8093032842CE8111EF
:10268000F5CF82E080930E2980910B298093102949
:10269000F0CF909103289A3051F380910D298F5FEC
:1026A00080930D292ECE90910C299111EBCF109291
:1026B000032810920D2925CE923009F0B6C02130A2
:1026C00089F110F1223009F02DCE8091CC288111B2
:1026D00097C01091D028812F8F70823009F469C083
:1026E000B8F5882309F44AC0813009F01BCE84E094
:1026F0000E948901882309F44AC08091D028807FF4
:1027000083608093D0280ECE95E09093CE281092CF
:10271000DD281092C0281092BF281092BE288F5F2B
:102720008093CF288091DD28813059F40E94C30125
:1027300080E28093D0288091CF288F5F8093CF282C
:10274000C4CF823009F0EECD84E28093CF28EACD69
:10275000843009F44DC008F442C0853009F0E2CD60
:102760008091DD28813009F065C18091C3288150B6
:102770008093C328811150C08BE017C00E94C30111
:1027800082E3809303291F5F1093D028B0CF81E0AC
:102790000E948901882321F08091D0288F5FB1CFDA
:1027A000809103298111BECD88E080930B2983E2BB
:1027B000CCCF1092C6288093C7281092C82886ECE8
:1027C00098E20E94B205813009F034C11F5F109376
:1027D000D0280E94C30182E380930329A3CD85E022
:1027E0008093C32882E3809303291F5F1093D0282E
:1027F00084E00E948901882329F081E08093CC281D
:1028000083E1A3CF86E00E948901882349F284EB0B
:102810009DEF0E943E02C0CF0E94C30182E38093DD
:10282000032911501093D0287DCD222361F021304F
:1028300009F078CD8091DD28813011F1823009F0E6
:1028400071CD82E282CF933031F41092CD28109274
:10285000DD288F5F7ACF943021F491E09093CD28DA
:10286000F6CF2091CE28223139F0243029F022E110
:102870002093CE282093E3281092DD28953049F745
:1028800082E163CF8091E0288F7080618093E0289F
:1028900081E08093E22876CD8091E0288F7080627D
:1028A000F5CF88ED98E298CDAE014C5F5F4FBE0149
:1028B000665F7F4FCE0107960E9487058C8181114C
:1028C00004C08D81882309F497CDAE014F5F5F4F1F
:1028D000BE01665F7F4FCE0104960E94780688CDC8
:1028E00084E00E948901882309F488CD84E690E081
:1028F0000E943E0283CD833009F080CD8091DD2897
:10290000813009F07BCD86E00E948901882309F49B
:1029100075CD84EB9DEFECCF8DEE98E20E94CB015C
:102920008091E828823A09F4D6CD982F92959F702D
:102930008F70FAE09F9F800D11248093E828CBCD03
:102940001092E528D1CD853009F0CECD8091E728D1
:102950008111CACD8091E828803B09F0C5CD8091D6
:10296000E9288F3F09F4C0CD89EE98E20E94CB019F
:10297000BBCD0E94250206CE84E00E9489018823F7
:1029800009F400CEFACD823009F01CCE8091F928EE
:102990009091FA28A091FB288093F3289093F42833
:1029A000A093F5280FCE80910A29882309F40ACE36
:1029B000E09109298E2F82958F708E3018F4EF7078
:1029C000E53030F083E08093082910920A29FACD8F
:1029D000B5E08B9FC0011124E80FF92FF11DEE0F18
:1029E000FF1FEE5AF3490190F081E02D309751F32B
:1029F0000995823079F0833031F3813009F0E2CDEE
:102A0000809109298F5F80930929109207291092DC
:102A10000629D8CD8093082910920A2980910B2984
:102A2000863009F4CFCD8450823008F0CBCD0E949F
:102A3000AD0AC8CD823009F4BACE74CC991B79E0C6
:102A400004C0991F961708F0961B881F7A95C9F73E
:102A500080950895A1E21A2EAA1BBB1BFD010DC093
:102A6000AA1FBB1FEE1FFF1FA217B307E407F5073E
:102A700020F0A21BB30BE40BF50B661F771F881F1A
:102A8000991F1A9469F760957095809590959B01B0
:102A9000AC01BD01CF010895EE0FFF1F0590F49129
:082AA000E02D0994F894FFCF2A
:102AA800010201010C0201010401010101020101FD
:102AB800F60201160300E90105F602000000000015
:102AC80000000000000000000000000000000000FE
:102AD80000000000000000000000000000000000EE
:102AE800000000000000000000000000160300E9DC
:102AF8000101F602000000000000000000000000D4
:102B080000000000000000000000E90100160302B8
:102B1800F60200000000000000E90100160303F6B9
:102B28000200000000000000160300E9010216037D
:102B380004F60200000000160300E901021603076C
:102B4800F602000000001603060000000000000066
:102B58000000000000E90100160308E9010316035C
:102B680009F60200E90100160308E9010416030941
:102B7800F602000000000000000000000000000055
:102B88000000E9010016030BF60200000000000037
:102B980000160300E90100F6020200000000000030
:102BA800E7080000000000000000E002000000004C
:102BB800000000009A08210269052B0400000B049C
:102BC8000402F70300000000DD0374060402F703A3
:102BD8000000E0020000000000000000DC0400002B
:102BE8000000000000005506D103E00200000000CC
:102BF8009F08E002000000000000FE0AE00200005A
:102C080000000000E00200000000000000002102B7
:102C1800BD030B040402E002B302AC028B027B0288
:102C28005D02BB02640756073A0A290A570C430794
:102C38002C075C0AF906F50954021A07AE09C30BFA
:102C48002409F608AD0B190A320CF90A2401AD0A59
:102C5800C702E602B702E2020000000000002401F9
:102C6800AD0AC702E2020000B902E402E202000073
:102C780000002401AD0AC502E2020000B9029F0C5F
:102C8800E202000000002401AD0AE2020000000098
:102C9800B9029F0CB80AE20200002401E202000017
:102CA800000000002401C902E202000000006B0CD1
:102CB800E202000000000000F30AE2020000000047
:102CC8000000F402E202000000000000F002E2024C
:102CD80000000000000000000000000000000000EC
:102CE80000000005010101010101000000000000D1
:102CF80000000000000000000000000002030000C7
:102D0800010203040506070001020304050001028D
:102D18000304050607000102030405060700010273
:102D28000300010203040506000000000000000083
:102D3800010101010101020202020202020203036F
:102D4800030303030303040404040505050505053B
:102D58000501020408102040800102040810200127
:102D6800020408102040800102040810204080015D
:0A2D780002040801020408102040C4
:042D8200010001FF4C
:00000001FF
