:100000000C9450000C946D000C946D000C946D00D9
:100010000C946D000C946D000C948E0D0C946D007E
:100020000C946D000C946D000C946D000C946D009C
:100030000C946D000C94B30D0C946D000C946D0039
:100040000C946D000C946D000C946D000C946D007C
:100050000C941F0D0C946D000C946D000C946D00AD
:100060000C94440D0C94AD0C0C946D000C946D002C
:100070000C946D000C94D50C0C946D000C946D00D8
:100080000C946D000C946D000C94690D0C94FA0C9A
:100090000C946D000C946D000C946D000C946D002C
:1000A00011241FBECFEFCDBFDFE3DEBF18E2A0E01B
:1000B000B8E2EEE7FCE202C005900D92A430B10771
:1000C000D9F729E2A4E0B8E201C01D92A431B20739
:1000D000E1F70E94D90D0C94D0140C940000CF933A
:1000E000DF9390E0FC01EB5AF34920812F3F61F050
:1000F000FC01E45DF349E08130E2E39FF00111246B
:10010000FC5F613021F42183DF91CF9108958D5FF1
:100110009349EC01A881AF3F69F0CF014096A80F49
:10012000B92FB11D9FB7F89422838C9188608C936E
:100130009FBFEACFB0E0A0E0F5CF90E0FC01E6522F
:10014000F449E081EE2319F1E13021F000F1E630CD
:10015000A8F008958D5F9349FC012081233008F0B9
:100160002F5F3091010A81E090E001C0880F2A954D
:10017000EAF7809583238093010A089580E1E89F40
:10018000F0011124E05AF54F81818F7E818308951B
:100190000F931F93CF93DF93C82FD0E0FE01EB5A4C
:1001A000F34900810F3F91F0162F0E949D00FE0140
:1001B000E45DF349E08180E2E89FF0011124FC5FF7
:1001C0008081802351F0111106C00683DF91CF9109
:1001D0001F910F9108950583F9CFCD5FD349888191
:1001E000309771F08F3F61F07096E80FF11D9FB767
:1001F000F8948081111107C0877F80839FBFE6CF6D
:10020000F0E0E0E0F4CF8860F8CF0F931F93CF9336
:10021000082F10E0F801EB5AF349C081CF3F79F085
:100220000E949D00F801E45DF349E08180E2E89FCF
:10023000F0011124FC5F8085C82381E009F480E08F
:10024000CF911F910F91089581E00895EF92FF9251
:100250000F931F93CF93DF9390E2899FE0011124C6
:10026000DC5FE984082F000F000F000FFF24F394D8
:1002700010E08E2D8F2179F0E02FE10FF0E0EE0FEE
:10028000FF1FE35EF74D80819181892B21F0019062
:10029000F081E02D09951F5FFF0C183051F7E986BA
:1002A000DF91CF911F910F91FF90EF9008952BEC6C
:1002B00037E080917B289FEF980F90937B288823CD
:1002C00021F0C9010197F1F7F4CF089581E08093FF
:1002D000E72880911C28882329F080911C288150D0
:1002E00080931C280895FC018091EA28882351F00E
:1002F0008091F02880838091F12881838091F22879
:10030000828308958091EC2880838091ED288183F9
:100310008091EE28F5CF982F8091F428811121C08B
:100320004091E928342F3F702091EA289330F9F06A
:1003300030F4913089F09230B1F081E017C09530FF
:1003400001F1C8F09630C9F7313081F4222371F001
:1003500081E02A3A59F405C0313041F481E021119D
:1003600005C080E0089581E03230D9F7089581E03A
:100370003330B9F7FBCF3130C9F781E02223B1F335
:10038000F0CF4370413091F7F8CF81E08093F528AA
:100390008093F4281092E7280895FC018081282F8B
:1003A00022952F709AE08F70299F800D11248083F1
:1003B0008181282F22952F708F70299F800D112405
:1003C00081838281282F22952F708F70299F800D25
:1003D0001124828308959091D32892959F70981349
:1003E00004C090911B28911109C08295807F809351
:1003F000D3281092D22881E080931B288091D228A4
:1004000082958F7011F010921B280895809100281A
:1004100090910128892BA9F484E18093FD28809193
:10042000182890911928A0911A288093F628909363
:10043000F728A093F82881E08093022910920129DF
:10044000089588E2EACF1092022981E00895809110
:10045000002890910128892B39F484E18093FD28AC
:1004600086EF98E20C94730188E2F8CF9091D1283E
:1004700081E09D3021F0943111F080E008950895DD
:10048000919581959109809316289093172883E080
:100490008093152884E18093D1281092E02810924F
:1004A000C3281092C2281092C1280895E9EFF8E2FB
:1004B000808182E3808386E08093E628089580919E
:1004C000D128853031F48093E6288DE08093D128BF
:1004D0000895843151F484E08093D12882E08093A0
:1004E000E02881E08093082908958091E0288230F7
:1004F00019F081E08093E02808958091F928811116
:100500000BC084E08093E6288093D12883E0809319
:10051000082982E08093E02808958091F9288111CC
:1005200016C080910E28882331F08FE38093F9283C
:1005300010920E28089584E08093E6288093D128B5
:1005400083E08093082982E08093E02808958DE07D
:100550008093F92883E08093E62808958DE08093C6
:10056000F92883E08093E628089581E08093E628C7
:10057000089581E0089581E0089582E38093F92849
:1005800086E08093E62883E080931528089581E033
:10059000089581E0089580910429811107C0809118
:1005A0000E298093F92881E0809304298091F9280D
:1005B000882331F080910D29881F8827881F08958E
:1005C00081E0089583E0089583E0089584E08093B6
:1005D000D12881E08093E6281092E02883E00895F6
:1005E00010920D2981E0089581E00895882379F023
:1005F000823079F49091E628943031F09D3021F0EA
:1006000091E090930829089581E08093092983E07F
:100610000895809108298930D1F328F481508230DF
:10062000B0F381E008958C30E1F7F1CF1F93CF93C1
:10063000DF939091E42892959F70981304C0909155
:100640000B28911115C0982F9295907F9093E428D4
:100650001092E2281092E12811E010930B281092DA
:10066000E528D091E328893071F4DF70D093E32836
:100670008091E32882958F7011F010920B28DF9102
:10068000CF911F910895CD2FC770C093E328863076
:1006900009F443C0C0F4823009F1833049F70E9465
:1006A0003602882319F080E0C13049F3D1E0D093BD
:1006B000E5280E943602811102C0C23031F5C061C6
:1006C000C093E328D5CF8A3021F08B30B9F1883040
:1006D00079F680910829882359F229C00E943602B0
:1006E000882311F0C33041F48091082981111FC083
:1006F00081E0809308291BC0C13009F0B9CF81E1A6
:100700008093E328C093E528B3CF80910829811115
:1007100002C0D0930829C062D3CF0E943602811153
:10072000A7CF80910829811102C010930829C062C7
:10073000C093E32881E08093E5289ACF0E94360297
:10074000882391F2D570D13009F092CFCDCF90911E
:100750000D29992381F08091D4288F70981309C0B6
:1007600090910E298091D628891729F081E09F3F2A
:1007700019F080E0089581E00895CF9380910D29CC
:1007800090910E29C091E228C11108C00E94400238
:1007900081E08093E2288C2FCF910895C091E028CA
:1007A000FACF8091E328807F90910E29911101C0AA
:1007B00083608093E32883E00895E4EDF8E2ABE002
:1007C000B9E212968C911297868313968C911397A7
:1007D000878314968C91808786819781A0858093EA
:1007E000182890931928A0931A2881E008958091E1
:1007F000E328807F82608093E3288091DA289091BB
:10080000DB28A091DC288093182890931928A093C6
:100810001A2883E008958091E228811108C00E947F
:10082000C50182E38093002981E08093E22881E082
:100830000E948B01882331F08AED98E20E947301B7
:1008400081E0089590910029911104C088E080937F
:10085000082982E008958091E328807F8160809359
:10086000E32883E00895DC01FB019C91892F8295A8
:100870008F702AE09F70829F900D112490831196B3
:100880009C911197892F82958F709F70829F900DF8
:100890001124918312968C91982F92959F708F704E
:1008A000929F800D112482830895DC01FB018C91BD
:1008B0002AE0622F0E949C148295807F982B90835F
:1008C00011968C9111970E949C148295807F982B91
:1008D000918312968C910E949C148295807F982B14
:1008E000928308959091E9289093D4288091EA28E2
:1008F0008093D5283091EB283093D6282091EC288E
:100900002093D7284091ED284093D8284091EE2895
:100910004093D9284091EF284093DA284091F0285D
:100920004093DB284091F1284093DC284091F22845
:100930004093DD289F70913089F58A3A41F06AE052
:100940000E949C148295807F982B9093D52867ED08
:1009500078E2CB010E9455048091D628805A8230DB
:1009600058F48091DB286AE00E949C148295807F75
:10097000982B9093DB2808956BED78E2CB010E94D1
:1009800055048091D628823AB1F06AE00E949C1406
:100990008295807F982B9093D6280895953059F4AE
:1009A000811109C0303B39F42F3F29F067ED78E21F
:1009B000CB010C9455040895CF93C091E128C11147
:1009C00064C08091E228811124C08091E3288F7057
:1009D000813089F40E94A703882341F084ED98E2D6
:1009E00080930D29C3E08C2FCF91089582E08093EE
:1009F0000829C2E0F8CF0E94C5018FEF809300293B
:100A000081E080930A288093092810920828809317
:100A1000E2288091E228882331F380910029811116
:100A200015C080910828811102C088E0E0CF1092A3
:100A300008288FEF8093002980910A289091092837
:100A40009923D1F1882391F110920A2880E00E9425
:100A50008B01882341F2C1E0C09308288091E328EC
:100A60008F70833069F586E00E948B01882341F105
:100A700084EB9DEF0E944002C093E1281092E2288F
:100A8000C091E128CC2309F4AECF8091E2288111F6
:100A90000BC0C091E028C13009F0A5CF0E94C5016C
:100AA0001092E128C093E228C0E09DCF109209285F
:100AB00081E080930A28CACF8111C6CF89E097CF01
:100AC0000E9472040E94A703811188CF0E94C50171
:100AD000D7CF8091E228811108C00E94C50182E32E
:100AE0008093002981E08093E22881E00E948B01BD
:100AF000882321F00E94720481E0089590910029DA
:100B0000911104C088E08093082982E00895CF9372
:100B1000DF93EB01DC0112963C9112972A81632F3F
:100B2000621B770BFB0111962C9111973981231BC6
:100B3000330B8C919881891B990B77FF04C0E55B7F
:100B4000FF4F2150310937FF03C0245C3F4F01970D
:100B5000DA018C9311962C9311971296EC93DF91F6
:100B6000CF9108958F929F92AF92BF92CF92DF92D2
:100B7000EF92FF921F93CF93DF93DC01FB01EA0119
:100B800012962C911297628170E090E080E0620FE3
:100B9000711D811D911D11962C9111978180912CB1
:100BA000B12CA12C820E911CA11CB11C2C91C080D7
:100BB000D12CF12CE12CC20ED11CE11CF11C2BE438
:100BC00030E040E050E00E94A814162FCA01B9019D
:100BD000680D791D8A1D9B1D2CE330E040E050E03C
:100BE0000E94A814C20ED31EE41EF51EC88269839B
:100BF0001A83DF91CF911F91FF90EF90DF90CF90FC
:100C0000BF90AF909F908F900895DC01FB019C9165
:100C10008081981798F0891798F011969C911197F8
:100C20008181981758F0891758F012969C9182810B
:100C3000981720F0891720F081E0089580E008954A
:100C400082E00895FF920F931F93CF93DF9300D01C
:100C50001F92CDB7DEB78C01F09005288091062851
:100C600081110CC0F1100AC00E94C50182E380937B
:100C700000291092072881E0809306288091062899
:100C8000882321F1F11022C081E00E948B0188238A
:100C900009F43EC08DED98E20E94730119821A8218
:100CA0001B826DED78E2C8010E940506882341F0A1
:100CB000AE014F5F5F4F6DED78E2C8010E9487057E
:100CC0008B8180931C2881E08093052890910628D1
:100CD0008091052891114EC0882399F18091E028D8
:100CE000813009F042C09091C128911101C080E08B
:100CF0009091C328911182609091C22891118460D3
:100D000080FF28C08CE0809308291092052818C025
:100D100084E00E948B01882351F084E690E00E94D9
:100D2000400281E08093052810920628CFCF809161
:100D300000298111CBCF88E08093082910920628E2
:100D400082E02396CDBFDEBFDF91CF911F910F913F
:100D5000FF900895809107288F5F80930728853141
:100D600088F61092052880E0ECCF8230E1F71092EF
:100D70000528E7CF882329F380911C288111F3CF20
:100D80001092062881E080930528DBCFCF938091D5
:100D9000E228C091E028811115C01092DA2882E083
:100DA0008093DB281092DC288AED98E20E942206CC
:100DB000C82F813039F484EB9DEF0E944002C0932C
:100DC000E228C0E08C2FCF9108958AED98E20C9430
:100DD00022068FE00E94050190E008950E94E90636
:100DE000882351F08091F928811109C08CE080930B
:100DF000E6281092F92808958FE08093E628089558
:100E00001092E02880911528811113C00E94E906F4
:100E1000882369F088E08093082982E08093E028A5
:100E200082E18093E62884E08093D128089586E0CB
:100E3000F2CF81508093152885E08093F92881E1D5
:100E40008093E62808950E94E906882389F080911E
:100E5000F92881110CC081E080930D2886EF9FEF67
:100E6000809316289093172884E18093E6280895AC
:100E70008FE0FBCF1092F9280E94E906882359F0F1
:100E800080910D28811103C086E28093F9288CE0BF
:100E90008093E62808958FE0FBCF8091F928811197
:100EA00007C00E94E906811104C08FE08093E62804
:100EB000089588E0FBCF8091F92881110CC084E06F
:100EC0008093082992E09093E02892E19093E6289D
:100ED0008093D12808950E94E906882331F083E0A9
:100EE0008093F92887E08093E62808950E94E90618
:100EF00091E0811101C090E0892F089580917E28B2
:100F0000882331F062E082E00E946F0010927E2818
:100F100082E00E94050190E00895EF92FF920F9306
:100F20001F93CF9360E082E10E94C80098E0E92E11
:100F3000F12CC0E061E082E10E94C8000C2F10E0BB
:100F400015950795C02F0E947E07892B09F0C06870
:100F500060E082E10E94C80081E0E81AF10851F7E0
:100F600060E083E10E94C8008C2FCF911F910F9108
:100F7000FF90EF900895CF93C82F80917E28811124
:100F800007C061E082E00E946F0081E080937E28CC
:100F90006C2F82E0CF910C94C8001F93CF93DF9306
:100FA000182FC8E0D0E0812F817090E00E94BB072D
:100FB00060E082E10E94C80061E082E10E94C80016
:100FC0001695219781F761E083E10E94C80081E0D6
:100FD00090E0DF91CF911F910C94BB078091E7289F
:100FE000882339F08DE08093E62889E18093F92801
:100FF00008958091F928811106C08EE08093E6283B
:1010000081E08093C32808951F93CF93DF93182F17
:10101000C8E0D0E060E08EE00E94C800612F6170FF
:1010200085E10E94C80061E08EE00E94C80016952C
:10103000219781F760E084E10E94C800000061E030
:1010400084E10E94C80061E085E1DF91CF911F91AA
:101050000C94C800823309F46BC098F48F3150F4BB
:101060008C31B0F58B3170F5893150F5883131F123
:101070000C9404088033C1F1C8F58F31C9F786EEAE
:10108000F7CF833479F150F48433F1F188F185336B
:1010900009F446C0813461F781ECEACF863411F15E
:1010A00018F48434C9F3E4CF833BA1F08B3B01F700
:1010B00010920028109201288DE9DACF80EED8CF67
:1010C0008AEED6CF88EE0E9404081092E828089590
:1010D0008EEECECF81E090E080930028909301289F
:1010E00089E9C6CF86ECC4CF81E8C2CF80EDC0CFFE
:1010F0008091042880628093042882EA0E94040878
:1011000061E08BE00C94C8008091042885FF10C03A
:101110008F7C8093042880EA0E94040860E0F1CF6D
:10112000809104288F7C80618093042881EAF4CF29
:10113000089583E30E942A0881E008958091E128C0
:10114000811110C08091E22881110CC08091E328A8
:101150008F70823011F081E008950E94990881E03B
:101160008093E2288091E128811110C08091E228CB
:10117000882361F0109202290E94C50182E38093C6
:10118000002981E08093E1281092E2288091E128F3
:10119000882311F18091E22881111DC085E00E9411
:1011A0008B018111D8CF81E00E948B01882351F0FF
:1011B0008AED98E20E9473018091E3288860809311
:1011C000E328C9CF90910029911106C088E080934F
:1011D000082982E0089580E008950E9499081092FD
:1011E00002291092F528109207288091E328807F29
:1011F0008093E32883E008950E94E9068823F9F0AC
:1012000080911428811104C080911328882359F0FB
:101210008091FC28811107C088E10E942A08109261
:101220001428109213288FE10E942A080E94C501F9
:1012300086E18093E62889E18093F928089581E08A
:101240008093C2288FE08093E62810921428109291
:1012500013280895109214281092132860911628CC
:1012600070911728AB0177FF04C044275527461B10
:10127000570B409311285093122846395105D4F149
:1012800088E1493B2BE052070CF454C02091E82838
:10129000809100289091012816161706A4F5203198
:1012A00038F0213208F04CC0413A2FE0520748F1A3
:1012B00026E001C029E033E0569547953A95E1F7DD
:1012C000BA01660F771F460F571F440F452F441F63
:1012D000550B30E0892B21F4220F331F220F331FCF
:1012E000240F351F2093FC288BE10E942A0881E0FF
:1012F0008093142885E18093E62883E08093F92881
:10130000089521E0D8CF31E030931328203108F13F
:10131000213220F522E0009729F4223041F483E0C5
:1013200090E005C041E0223009F040E0842F809336
:10133000FC288AE10E942A08DDCF80E190E0F7CF07
:10134000009729F4413127E2520708F0B3CF20E09B
:10135000B2CF892B91F386E090E0E9CF23E0DBCF99
:1013600083E18093E62880910F288823E9F180911A
:1013700010288823A1F00E94E906882381F080913B
:101380007D28882361F089E00E940501882339F0D7
:101390008AE10E942A088DE78093F928089588E160
:1013A0000E942A088FE38093F92881E080930E2819
:1013B00010920D282091002830910128232B09F04C
:1013C00080E080930C281092102880917D28811154
:1013D00005C01092F92810920F28089589E00E9404
:1013E00005018823B1F308951092F92810920E2870
:1013F000FACF88E10E942A0880911528811113C034
:1014000082E08093E02882E18093E62884E0809364
:10141000D1288091C128811104C084E080930829DB
:1014200008958DE0FBCF8150809315288DE0809347
:10143000F92880E18093E62808958091F9288111A8
:101440000BC08FE10E942A080E94C50186E18093AB
:10145000E62889E18093F92808950E94E906882307
:1014600059F08091F928811106C08CE10E942A0868
:101470008AE08093E62808958FE0FBCF8BE10E94FD
:101480002A0889E18093F92889E08093E62881E0A1
:1014900080930F2808958091002890910128209131
:1014A0007C28211107C0892B19F081E40C942A08AB
:1014B00083E4FCCF892B11F084E4F8CF86E4F6CFE7
:1014C000CF938091D128853061F48093E6288DE018
:1014D0008093D12888E10E942A0810921028CF9189
:1014E000089580910F288823B1F180910D288823D9
:1014F000E9F080E10E940501813021F48091F92812
:101500008111EDCF88E10E942A089091F9288DE79A
:10151000891B87FD09C0880F8093F92881E080939B
:101520000E2810920F28DBCF8FEFF6CF8091F9288D
:101530008111D5CF8FE38093F92880910E288823DD
:1015400019F010920E28CBCF80910C28882349F3F4
:1015500010920C28C4CF8091F9288111C0CF8091BE
:101560000E28882321F08DE08093F928EACFC1E08E
:10157000C093E62883EB0E942A0881E090E08093E4
:101580000028909301280E944B0A10920D28109277
:1015900010288091D128823109F0A1CFC093E02892
:1015A0009ECF0E94E906882309F44DC08091F3285C
:1015B000811108C08091F92881110CC08EE08093C0
:1015C000E62808951092F32889E18093F92883E0B2
:1015D000809315288091D128843131F48093E628B6
:1015E0008DE08093D12808958091D0282091002803
:1015F00030910128232B61F481111EC088E1809372
:10160000E6288AE10E942A088DE08093F92808954F
:10161000882391F08AE08093F92887E18093E62877
:101620008BEB0E942A088CE10E942A081092002865
:10163000109201280C944B0A8DE08093D12881E010
:101640008093E02808958FE0BACF80910028909190
:101650000128892B91F48091F92881111EC083EB18
:101660000E942A088CE10E942A0881E090E0809381
:101670000028909301280C944B0A80E10E940501F8
:10168000882359F08FE10E942A080E94C50186E153
:101690008093E62889E18093F92808950E94E9065D
:1016A000882371F080E10E940501882341F00E94A7
:1016B0004B0A81E0809310288BE08093E628089500
:1016C0008FE0FBCFCF93C0910429C11130C00E949D
:1016D000E906811107C084E080930829C2E08C2FBD
:1016E000CF91089580E10E940501811102C085E03B
:1016F000F3CF80910D298093162880910E29809335
:101700001728809116289091172891958195910915
:1017100080931628909317280E942A0981E08093CD
:1017200004299AEF9093F92880930E28D8CF8FE15F
:101730000E942A08C1E0D3CF88E10E942A081092B3
:101740000F281092102810920D2881E00895CF9351
:10175000C0911028C11159C08091032981112EC058
:1017600080910429811106C082E38093F92881E0E9
:1017700080930429809104298823E1F08091F9283D
:10178000811107C084E080930829C2E08C2FCF919B
:1017900008950E94E906882369F089E18093F92879
:1017A0008BE10E942A0881E080930F28809303290F
:1017B0001092042980910329882389F080910429BB
:1017C00081110DC08091F928811109C084E68093B0
:1017D000F9288CE10E942A0881E0809304298091F5
:1017E0000329882399F280910429882379F2809132
:1017F000F928811102C085E0C6CF80E10E94050171
:10180000882321F281E080931028C1E0BFCF80912E
:101810000329811125C09091042991110AC090914A
:101820000D2891110CC096E29093F92891E09093C5
:10183000042990910429911105C080E00895109227
:10184000F928F4CF9091F9289111F8CF81E0809395
:101850000D289EE39093F928809303291092042980
:10186000809104298111E9CF8091F928811105C067
:1018700086E08093082982E008958FE10E942A087B
:1018800081E0089580910D290E942A0881E0089541
:1018900083E30E942A0881E00895CF938091E12894
:1018A000811113C08091E22881110FC08091E3283B
:1018B000982F9770C1E0923089F583FF28C0877F09
:1018C0008093E32881E08093E2288091E1288111D0
:1018D00012C08091E228882371F08AED98E20E947C
:1018E0002206C82F8130D1F484E30E942A08C093D5
:1018F000E1281092E228C091E128CC2379F0809170
:10190000E228C0E081110AC0CF910C94060284E362
:101910000E942A0881E08093E128D7CF8C2FCF91B5
:1019200008958091A828811116C08FE0ECEAF8E2B2
:10193000A7E9B8E201900D928A95E1F78FE08093D4
:1019400087288093A72881E08093A9288093A828DE
:101950008093BF28089580E008951F920F920FB6DC
:101960000F9211248F939F93AF93BF93809110296F
:1019700090911129A0911229B09113290196A11DCE
:10198000B11D8093102990931129A0931229B0932F
:10199000132981E08093A60ABF91AF919F918F9107
:1019A0000F900FBE0F901F9018951F920F920FB6B9
:1019B0000F9211242F933F934F935F936F937F93D5
:1019C0008F939F93AF93BF93EF93FF9385E00E9414
:1019D0002601FF91EF91BF91AF919F918F917F91E0
:1019E0006F915F914F913F912F910F900FBE0F908C
:1019F0001F9018951F920F920FB60F9211242F93DC
:101A00003F934F935F936F937F938F939F93AF9386
:101A1000BF93EF93FF9384E00E942601FF91EF9123
:101A2000BF91AF919F918F917F916F915F914F91F6
:101A30003F912F910F900FBE0F901F9018951F92FE
:101A40000F920FB60F9211242F933F934F935F93F2
:101A50006F937F938F939F93AF93BF93EF93FF9376
:101A600083E00E942601FF91EF91BF91AF919F917A
:101A70008F917F916F915F914F913F912F910F9037
:101A80000FBE0F901F9018951F920F920FB60F92D6
:101A900011242F933F934F935F936F937F938F9373
:101AA0009F93AF93BF93EF93FF9382E00E94260131
:101AB000FF91EF91BF91AF919F918F917F916F9126
:101AC0005F914F913F912F910F900FBE0F901F90FC
:101AD00018951F920F920FB60F9211242F933F93D8
:101AE0004F935F936F937F938F939F93AF93BF9326
:101AF000EF93FF9381E00E942601FF91EF91BF9148
:101B0000AF919F918F917F916F915F914F913F9195
:101B10002F910F900FBE0F901F9018951F920F924C
:101B20000FB60F9211242F933F934F935F936F93B0
:101B30007F938F939F93AF93BF93EF93FF9380E037
:101B40000E942601FF91EF91BF91AF919F918F91DC
:101B50007F916F915F914F913F912F910F900FBEA9
:101B60000F901F9018951F920F920FB60F9211248D
:101B70002F938F939F93EF93FF9381E08093960A27
:101B800090E080E0FC01E750F74D2081222319F01E
:101B900020812150208301968830910599F7FF918B
:101BA000EF919F918F912F910F900FBE0F901F90EB
:101BB0001895CF93DF93CDB7DEB72C97CDBFDEBF9F
:101BC00088ED90E084BF909361008091020686606A
:101BD00080930206809100068160809300068091C8
:101BE00002068F7C8065809302061092E20582E0F7
:101BF0008093E40581E08093030A8EEF8093270AA7
:101C00008093260A80E880932D0A80932B0A809384
:101C1000290A80932C0A80932A0A8093280A8BE051
:101C20008093000A87E08093E505E0E8FAE037E07A
:101C30002EEF90E885E03183248795878083709626
:101C4000E03C4AE0F407B9F71092A10A8FE79EE35F
:101C50008093AC0A9093AD0A8091A50A816080932D
:101C6000A50A1092A00A8091A00A81608093A00A20
:101C700078948FEF99EF80939C0A90939D0A10922D
:101C8000910A11E01093950A03E00093900A86E60A
:101C900091E0809343289093442880915304887F57
:101CA000809353048091530483608093530461E0D4
:101CB0008EE00E946F0061E085E10E946F0061E0AC
:101CC00084E10E946F0061E08CE00E946F0062E09E
:101CD0008DE00E946F0062E089E00E946F0062E088
:101CE00081E10E946F0062E080E10E946F0061E08C
:101CF0008BE00E946F0060E08BE00E94C80062E011
:101D00008FE00E946F0061E088E00E946F0060E059
:101D100088E00E94C80061E08AE00E946F0060E0F5
:101D20008AE00E94C80061E08CE00E94C80061E087
:101D300085E10E94C80061E08EE00E94C80061E079
:101D400084E10E94C80080EA80937B280E945701AA
:101D500088E280937B280E94570110937B280E9481
:101D6000570184E180937B280E94570161E08CE059
:101D70000E94C80061E085E10E94C80061E08EE039
:101D80000E94C80061E084E10E94C8001092E72828
:101D900084E08093D1281092E6281092E02881E018
:101DA00090E0809300289093012810937C28109253
:101DB000D02883EB0E942A0880E30E942A0881E34E
:101DC0000E942A0884E40E942A08EDE0F9E2DF017B
:101DD0001D920A95E9F78FEF80930C2910930B2938
:101DE0008093032810920A29109208291092092939
:101DF00010927D281092CF28E3E8F8E289E2DF0113
:101E00001D928A95E9F761E083E10E946F0061E02D
:101E100083E10E94C80061E082E10E946F0061E0FE
:101E200082E10E94C80010927E2862E082E00E9457
:101E30006F00109282281093022861E08AE00E94CD
:101E4000C800E6E04E2E512CF3E08F2E912C662434
:101E50006394712C64E0C62ED12C73EFA72E78E228
:101E6000B72E809182288823E1F090910C299F3F22
:101E700009F03AC090910B299130B1F580930C296B
:101E80008091812880930D298091802880930E294C
:101E900080917F2880930F29109282281092022827
:101EA00081E09091022891110CC081110AC08091AB
:101EB0000B298150823028F481E08093022880939E
:101EC000BB28E0918328F0918428E730F10508F0E1
:101ED000D4C0E359F04F0C94CA14760FDC0F0310F2
:101EE00023104E107D108C1080E0DBCF8091A8284D
:101EF000882309F453C01092882810928628C09233
:101F00008328D092842880918328909184280497F4
:101F1000029758F08091BF28882309F40AC11092D3
:101F2000BB281092BE281092BF288091BE28811134
:101F30000BC08091BB28882339F08093BE28815044
:101F4000833010F40E94910C8091BD28882359F0B1
:101F500080910228882339F01092AA2881E080938A
:101F6000AB281092BD288091BC28811107C08091B8
:101F7000AA288111809189288093BC288091BC284F
:101F8000813009F4DFC008F4F7C0823009F4A6C23A
:101F9000833009F4B5C21092BC28EEC00E947E07BF
:101FA000892B09F0B0CF6092832870928428109218
:101FB000872810928628A7CF0E948D07811108C01C
:101FC000409283285092842880E8809387289BCF72
:101FD00080938B288093862891E0909387288F7038
:101FE000E82FF0E0EC55F649808180938528813018
:101FF00039F483E090E0809383289093842883CF02
:1020000082E090E0F8CF0E947E07892B09F07BCF19
:102010000E948D07E091872821E02E0F20938728CA
:10202000F0E0ED57F74D808790918628890F8093D7
:10203000862880918528281708F465CF8092832808
:102040009092842860CF0E947E07892B09F05BCF95
:102050000E948D07809590918628891319C08091E0
:102060008B2890918A2889130DC082E0809389285B
:1020700081E08093AA2810928628109283281092DB
:10208000842841CF91E09093892880938A28F0CFCB
:1020900083E08093892810928A28EACF0E947E07E5
:1020A000892B09F430CFE0918828F0E0ED57F74D07
:1020B00084890E94CD0780918828E82FF0E0ED57B1
:1020C000F74D909186282489920F909386288F5FF0
:1020D0008093882880918728815080938728811158
:1020E00012CF1092A8288091A928882319F085E0A2
:1020F00090E081CF90E080E07ECF0E947E07892B28
:1021000009F401CF8091862880950E94CD07109216
:10211000A8281092A928AFCF80918728882311F092
:10212000815053CF83E08093892881E08093AA284F
:10213000A4CF8091BE288150833008F0F6CE0E9453
:10214000910CF3CE909102289923B1F090918B28B5
:102150009093822890918C289093812890918D283B
:102160009093802890918E2890937F281092022837
:102170001092BC288093BD2880910C298F3FC9F014
:102180008F5F809303289FEF90930C2910920B2967
:1021900010920A29803108F4C5C18E3108F4BCC1FF
:1021A00082E080930B2981E080930D298FEF80934B
:1021B0000328809103288F3F61F1803108F4B7C173
:1021C00080519091062992959F70891304C0909137
:1021D000C02891110FC08295807F809306291092AC
:1021E00004291092032981E0809307291092052980
:1021F0008093C02880910529882359F01092C02827
:10220000823009F4D1C1833009F4ABC1813009F4C3
:10221000C1C180910929811144C39091D32892951D
:102220009F708091D228282F2F709111C6C181E113
:1022300009F40CC28091E52881112CC0E091E428BA
:102240008E2F82958F708C3028F5EF70E53010F569
:10225000F5E08F9FC0011124E80FF92FF11DEE0F5B
:10226000FF1FEC55F5490190F081E02D309791F07A
:102270000995823009F491C2833009F484C2813017
:1022800049F48091E4288F5F8093E4281092E2283B
:102290001092E1288091E5288823C1F18091E328FC
:1022A000982F92959F70913089F58F70813009F049
:1022B000A3C28091E028813049F50E948B018823D8
:1022C00009F48FC28091F0288A878091F1288B874A
:1022D0008091F2288C878091D528BE01695F7F4F5D
:1022E000811160C287ED98E20E943304BE01695FEC
:1022F0007F4FCE010A960E940506823009F055C232
:1023000090E080E00E9440020E94C501E091E62832
:10231000F0E0EE0FFF1FE45EF4490190F081E02D44
:1023200009958091F528882309F466C08091E728F3
:10233000882309F461C01092E7288DE00E9405010E
:10234000882309F459C009EE18E2312C98E0E92EEF
:10235000F12C60E08CE00E94C80061E08CE00E94FB
:10236000C8008DE00E940501369420E8829FC001DC
:102370001124382A41E0E41AF10859F7D8013D92B6
:102380008D01AA16BB0609F71092F42881E080930C
:10239000F3288091E9288F70813009F055C280912F
:1023A000EA288A3A51F0982F92959F708F70BAE080
:1023B0009B9F800D11248093EA288CEE98E20E9466
:1023C000CD018091EB28805A823008F026C280919E
:1023D000F028982F92959F708F70EAE09E9F800D55
:1023E00011248093F0288091EA28882309F429C2D7
:1023F0008091F0288093E82880910229882309F4AD
:1024000065C080910129811143C08091FD2881110F
:102410005DC01C821D821E8219821A821B8281E08D
:102420000E948B01882309F428C2CE0104960E94E1
:10243000730119821A828FE08B83AE014F5F5F4F69
:10244000BA0186EF98E20E94B205BE016F5F7F4F2E
:10245000CE0104960E9405068230A9F4198281E01B
:102460008A831B82AE014F5F5F4FBA0186EF98E20D
:102470000E94B205BE016C5F7F4FCE0101960E94A3
:1024800005068111F7C181E0809301290E94990816
:10249000809101298823D1F019821A8288E28B83E6
:1024A000AE014F5F5F4FBA0186EF98E20E94B2051E
:1024B000CE0101960E942206813009F0E5C11092FA
:1024C00001290E94270284E30E942A0880E090E00C
:1024D000892B09F4C6CC0E940000B9CC8091BB289E
:1024E00081114ACE80918B288093AC2811E0109303
:1024F000BB281093BE280E94910C1093BD284BCD91
:102500008091BB28811138CE80918B288093AC2894
:1025100081E18093AD28EACF80910929882309F4CD
:102520003FCE47CE8091092981113ACE42CE2091EB
:102530000A292530B0F430E0D901AA0FBB1FA20F41
:10254000B31FEFE08E9FA00DB11D1124AC54B6490E
:10255000ED91FC911197309721F012968C9109958D
:102560004FCE80910328803159F41092092981E0DF
:1025700080930B29109208298FEF8093032849CE6E
:102580008111F5CF82E080930B29809108298093F7
:102590000D29F0CF909103289A3051F380910A29A8
:1025A0008F5F80930A2935CE909109299111EBCF45
:1025B0001092032810920A292CCE923009F0B6C04E
:1025C000213089F110F1223009F034CE8091CF28EA
:1025D000811197C01091D328812F8F70823009F418
:1025E00069C0B8F5882309F44AC0813009F022CEC9
:1025F00084E00E948B01882309F44AC08091D3288B
:10260000807F83608093D32815CE95E09093D12866
:102610001092E0281092C3281092C2281092C1286C
:102620008F5F8093D2288091E028813059F40E94F6
:10263000C50180E28093D3288091D2288F5F809358
:10264000D228C4CF823009F0F5CD84E28093D2281D
:10265000F1CD843009F44DC008F442C0853009F052
:10266000E9CD8091E028813009F062C18091C628CF
:1026700081508093C628811150C08BE017C00E9402
:10268000C50182E3809300291F5F1093D328B0CF48
:1026900081E00E948B01882321F08091D3288F5FF5
:1026A000B1CF809100298111C5CD88E080930829A0
:1026B00083E2CCCF1092C9288093CA281092CB28ED
:1026C00089EC98E20E942206813009F031C11F5F37
:1026D0001093D3280E94C50182E380930029AACDDC
:1026E00085E08093C62882E3809300291F5F1093C2
:1026F000D32884E00E948B01882329F081E0809315
:10270000CF2883E1A3CF86E00E948B01882349F282
:1027100084EB9DEF0E944002C0CF0E94C50182E37E
:102720008093002911501093D32884CD222361F087
:10273000213009F07FCD8091E028813011F1823085
:1027400009F078CD82E282CF933031F41092D02814
:102750001092E0288F5F7ACF943021F491E090932B
:10276000D028F6CF2091D128223139F0243029F019
:1027700022E12093D1282093E6281092E02895307A
:1027800049F782E163CF8091E3288F708061809365
:10279000E32881E08093E5287DCD8091E3288F7048
:1027A0008062F5CF8BED98E29FCDAE014C5F5F4F1D
:1027B000BE01665F7F4FCE0107960E9487058C8120
:1027C000811104C08D81882309F49ECDAE014F5F35
:1027D0005F4FBE01665F7F4FCE0104960E94B20537
:1027E0008FCD84E00E948B01882309F48FCD84E68D
:1027F00090E00E9440028ACD833009F087CD80911D
:10280000E028813009F082CD86E00E948B01882388
:1028100009F47CCD84EB9DEFECCF80EF98E20E9431
:10282000CD018091EB28823A09F4DDCD982F929565
:102830009F708F70FAE09F9F800D11248093EB288A
:10284000D2CD1092E828D8CD853009F0D5CD809131
:10285000EA288111D1CD8091EB28803B09F0CCCDC5
:102860008091EC288F3F09F4C7CD8CEE98E20E944E
:10287000CD01C2CD0E9427020BCE84E00E948B01C5
:10288000882309F405CEFFCD823009F01FCE89815F
:102890009A81AB818093F6289093F728A093F8282B
:1028A00015CE80910729882309F410CEE0910629DE
:1028B0008E2F82958F708E3018F4EF70E53030F0E7
:1028C00083E0809305291092072900CE25E0829F9E
:1028D000C0011124E80FF92FF11DEE0FFF1FE25B7D
:1028E000F4490190F081E02D309751F30995823041
:1028F00079F0833031F3813009F0E8CD80910629F9
:102900008F5F809306291092042910920329DECD4F
:10291000809305291092072980910829863009F4AF
:10292000D5CD8450823008F0D1CD0E949C0BCECD05
:10293000823009F4BDCE7ECC991B79E004C0991F8A
:10294000961708F0961B881F7A95C9F78095089509
:10295000A1E21A2EAA1BBB1BFD010DC0AA1FBB1FA3
:10296000EE1FFF1FA217B307E407F50720F0A21B15
:10297000B30BE40BF50B661F771F881F991F1A9482
:1029800069F760957095809590959B01AC01BD01AC
:10299000CF010895EE0FFF1F0590F491E02D0994EB
:0429A000F894FFCFD9
:1029A400010201010C020101040101010102010102
:1029B400F60201160300EB0105F602000000000018
:1029C4000000000000000000000000000000000003
:1029D40000000000000000000000000000000000F3
:1029E400000000000000000000000000160300EBDF
:1029F4000101F602000000000000000000000000D9
:102A040000000000000000000000EB0100160302BB
:102A1400F60200000000000000EB0100160303F6BC
:102A24000200000000000000160300EB0102160380
:102A340004F60200000000160300EB01021603076F
:102A4400F60200000000160306000000000000006B
:102A54000000000000EB0100160308EB010316035D
:102A640009F60200EB0100160308EB010416030942
:102A7400F60200000000000000000000000000005A
:102A84000000EB010016030BF6020000000000003A
:102A940000160300EB0100F6020200000000000033
:102AA400ED080000000000000000E2020000000049
:102AB400000000009908230269052B0400000B04A0
:102AC4000602F70300000000DD03E5060602F70333
:102AD4000000E2020000000000000000DC0400002E
:102AE400000000000000C606D103E202000000005E
:102AF4009E08E2020000000000004D0CE20200000B
:102B040000000000E20200000000000000002302B8
:102B1400BD030B040602E202B502AE028D027D0281
:102B24005F02BD025B074D073E0A2D0A4E0B3A07B2
:102B34002307D10A0007F9095602EE06B009600A14
:102B44002A09FC08EE071D0A250B480C24019C0BDE
:102B5400C902E602B902E4020000000000002401F8
:102B64009C0BC902E4020000BB027607E4020000E9
:102B7400000024019C0BC702E4020000BB02A70B67
:102B8400E4020000000024019C0BE40200000000A9
:102B9400BB02A70B070CE40200002401E4020000BE
:102BA400000000002401CB02E40200000000620BDC
:102BB400E402000000000000420CE40200000000F7
:102BC4000000F402E402000000000000F002E4024D
:102BD40000000000000000000000000000000000F1
:102BE40000000005010101010101000000000000D6
:102BF40000000000000000000000000002030000CC
:102C04000102030405060700010203040500010292
:102C14000304050607000102030405060700010278
:102C24000300010203040506000000000000000088
:102C34000101010101010202020202020202030374
:102C44000303030303030404040405050505050540
:102C5400050102040810204080010204081020012C
:102C64000204081020408001020408102040800162
:0A2C740002040801020408102040C9
:042C7E00010001FF51
:00000001FF
